:100000000C9461010C9489010C9489010C94890170
:100010000C9489010C9489010C9489010C94890138
:100020000C9489010C9489010C94BE0B0C948A0ADF
:100030000C9489010C9489010C9489010C94890118
:100040000C9489010C9489010C9489010C94890108
:100050000C9489010C9489010C9489010C942E054F
:100060000C9489010C9489010C9489010C948901E8
:100070000C9489010C9489010C9489010C948901D8
:100080000C9489010C9489010C9489010C948901C8
:100090000C9401040C9489010C9489010C9489013D
:1000A0000C9489010C9489010C9489013106340661
:1000B000230627062D0655065506550638063C0626
:1000C000400646064A065506500600000002000992
:1000D0000F0000030401000C0000000000000000FD
:1000E00000000000000000000408020110408040F1
:1000F000102040804080080204018040201002014E
:10010000108010204040040404040403040502028B
:1001100002020403020202020606060606060404A0
:100120000202020400000000250028002B002E001F
:100130003100080B00020202010009040000010264
:10014000020000052400100105240101010424021D
:10015000060524060001070581031000400904017B
:1001600000020A00000007050202400000070583A4
:100170000240000000C18081C112010002020000A3
:1001800040412336800001010200011201000200FB
:1001900000004041233680000101020001417264E9
:1001A00075696E6F204C4C430041726475696E6FC7
:1001B000204C656F6E6172646F00040309040000D7
:1001C0000000000000002A2B2800000000000000B2
:1001D00000000000000000000000000000002C9E55
:1001E000B4A0A1A2A434A6A7A5AE362D3738271EE9
:1001F0001F20212223242526B333B62EB7B89F848F
:1002000085868788898A8B8C8D8E8F909192939426
:1002100095969798999A9B9C9D2F3130A3AD350464
:1002200005060708090A0B0C0D0E0F101112131406
:1002300015161718191A1B1C1DAFB1B0B50009040B
:1002400002000103000000092101010001226500F4
:100250000705840340000105010902A1010901A16C
:10026000008501050919012903150025019503756C
:1002700001810295017505810305010930093109E4
:10028000381581257F750895038106C0C0050109D1
:1002900006A1018502050719E029E715002501756A
:1002A0000195088102950175088103950675081569
:1002B0000025650507190029658100C01F034F0748
:1002C000690D11241FBECFEFDAE0DEBFCDBF11E014
:1002D000A0E0B1E0E0E4FBE102C005900D92AE3693
:1002E000B107D9F722E0AEE6B1E001C01D92A33A12
:1002F000B207E1F712E0C2ECD2E004C02297FE019F
:100300000E949A0DCC3BD107C9F70E946D070C944F
:100310009E0D0C940000DC01ED91FC910190F081A8
:10032000E02D099484E791E00E94E70268E670E01E
:1003300084E791E00E940A036BE670E084E791E0B5
:100340000E948B0160E070E084E791E00E948B01E5
:1003500061E084E791E00E940C0340E855E260E030
:1003600070E08DE392E00C944907CF9368E670E06B
:1003700084E791E00E940A036BE370E084E791E078
:100380000E948B0160E084E791E00E940C0321E071
:1003900030E04EE050E068E670E084E791E00E94D3
:1003A000FE0284E791E00E945802C82F84E791E0A2
:1003B0000E9458022091040130910501821B930B89
:1003C00040E050E05C2F842B952B90937301809339
:1003D000720184E791E00E945802C82F84E791E0FF
:1003E0000E9458022091020130910301821B930B5D
:1003F00040E050E05C2F842B952B9093710180930B
:10040000700184E791E00E945802C82F84E791E0D0
:100410000E9458022091000130910101821B930B30
:1004200040E050E05C2F842B952B90936F018093DC
:100430006E0160E171E08DE392E00E94BE07609181
:100440007201709173014AE050E08DE392E00E94E6
:100450006E086AE171E08DE392E00E94BE07609150
:100460007001709171014AE050E08DE392E00E94CA
:100470006E0864E271E08DE392E00E94BE07609135
:100480006E0170916F014AE050E08DE392E00E94AE
:10049000760862E370E080E090E0CF910C949B05D9
:1004A0008091A40190E02091A501821B91090895FB
:1004B0002091A5018091A401281750F4E22FF0E0CB
:1004C000EA55FE4F808190E02F5F2093A5010895AB
:1004D0008FEF9FEF0895E091A5018091A401E817A7
:1004E00030F4F0E0EA55FE4F808190E008958FEF00
:1004F0009FEF08950895CF92DF92EF92FF920F93AE
:100500001F93CF93DF937C01CB018A01209180015F
:10051000222389F0EB016B01C40ED51ECC15DD053D
:1005200069F06991D701ED91FC910190F081E02D86
:10053000C7010995F3CF642F0E94D803C801DF914A
:10054000CF911F910F91FF90EF90DF90CF90089582
:10055000CF93DF931F92CDB7DEB7698320918001DF
:100560002223D1F020918101203240F021E030E0BF
:10057000FC013383228380E090E015C080918201EA
:10058000E82FF0E0ED57FE4F998190838F5F8093C5
:1005900082018093810105C061E0CE0101960E9435
:1005A000D80381E090E00F90DF91CF910895FC0196
:1005B0001382128248EE53E060E070E0448355837A
:1005C0006683778382E391E091838083089510921C
:1005D000A5011092A40110928201109281010C9445
:1005E0002303862F413208F040E266EA71E00E9460
:1005F00041031092A5018093A40108950C94F10287
:1006000081E0809380016093A30110928201109297
:10061000810108950C9400030F93062F21E040916F
:10062000810163E871E08091A3010E94850310922B
:10063000820110928101109280010F91089584E748
:1006400091E00C94D7021092330281E08093310242
:100650001092300261E082E00E94560661E083E081
:100660000E945606E9EBF0E080818E7F80838081D6
:100670008D7F808388E48093B80085E48093BC00FC
:100680000895413208F03FC0909133029111FCCFA0
:1006900091E090933302209331022FEF2093C60113
:1006A00010920B02240F20930A0290933202909131
:1006B0003202880F892B8093320280913002813080
:1006C00041F410923002809132028093BB0085EC9D
:1006D00001C085EE8093BC00809133028130E1F34C
:1006E00080910B02841710F440910B022CE032E051
:1006F000FB01D9018A2F821B841718F48D918193F5
:10070000F9CF842F089580E008950F93413208F0C7
:1007100046C0909133029111FCCF92E09093330246
:10072000009331029FEF9093C60110920B02409309
:100730000A02FB016CE072E0DB019A2F961B941712
:1007400018F491919D93F9CF109232029091320258
:10075000880F892B8093320280913002813041F4DE
:1007600010923002809132028093BB0085EC01C070
:1007700085EE8093BC00222321F0809133028230E9
:10078000E1F38091C6018F3F61F08091C601803214
:1007900051F08091C601803341F483E007C081E0CD
:1007A00005C080E003C082E001C084E00F9108959D
:1007B000613298F420913302243089F46093E80187
:1007C000FC018AEE91E0DC012A2F281B261718F481
:1007D00021912D93F9CF80E0089581E0089582E082
:1007E000089585ED8093BC008091BC0084FDFCCF12
:1007F00010923302089585EC8093BC00109233026E
:1008000008951F920F920FB60F9211242F933F93CA
:100810004F935F936F937F938F939F93AF93BF9308
:10082000EF93FF938091B900887F803609F49CC0D4
:1008300068F5883209F45BC090F4803109F454C043
:1008400038F4882309F4F5C0883009F44DC0F5C0A8
:10085000883109F44CC0803209F45DC0EEC08034A8
:1008600009F468C048F4803309F455C0883309F0AE
:10087000E4C08093C601A8C0803509F44FC0883514
:1008800009F45DC0883409F0D8C0D5C0883909F4AE
:10089000C6C0A8F4883709F467C038F4883609F46C
:1008A00063C0803709F460C0C8C0883809F4B7C095
:1008B000803909F45FC0803809F0BFC05BC0803B5D
:1008C00009F485C038F4803A09F466C0883A09F41E
:1008D0007EC0B3C0803C09F4A6C0883C09F4A3C024
:1008E000883B09F489C0A9C08091320210C0909160
:1008F0000B0280910A02981770F5E0910B0281E0DB
:100900008E0F80930B02F0E0E45FFD4F80818093B7
:10091000BB0085EC85C08093C6018DC0E0910B02C1
:1009200081E08E0F80930B028091BB00F0E0E45FCA
:10093000FD4F808390910B0280910A026DC0E0917F
:100940000B0281E08E0F80930B028091BB00F0E0E0
:10095000E45FFD4F80838091310281116CC081E0A2
:100960008093300284EA60C083E080933302109267
:10097000C701CFCF8091C701803208F050C0E0910D
:10098000C70181E08E0F8093C7018091BB00F0E02A
:10099000E853FE4F8083BDCF8091C701803230F491
:1009A000E091C701F0E0E853FE4F10820E94F1038E
:1009B0006091C70170E0E0912C02F0912D0288EC6B
:1009C00091E009951092C7010E94FB0336C084E0B4
:1009D000809333021092E9011092E801E0912E0217
:1009E000F0912F0209958091E801811105C081E005
:1009F0008093E8011092EA01E091E90181E08E0F15
:100A00008093E901F0E0E651FE4F80818093BB00C6
:100A10009091E9018091E801981708F47ACF85E870
:100A20008093BC000AC085EC8093BC001092330216
:100A300004C01092C6010E94F103FF91EF91BF9193
:100A4000AF919F918F917F916F915F914F913F9166
:100A50002F910F900FBE0F901F9018951F920F921D
:100A60000FB60F9211242F933F938F939F93AF93C1
:100A7000BF938091350290913602A0913702B091D8
:100A800038023091340223E0230F2D3720F40196F1
:100A9000A11DB11D05C026E8230F0296A11DB11DA1
:100AA000209334028093350290933602A09337024C
:100AB000B09338028091390290913A02A0913B02A2
:100AC000B0913C020196A11DB11D80933902909313
:100AD0003A02A0933B02B0933C02BF91AF919F9129
:100AE0008F913F912F910F900FBE0F901F901895EF
:100AF0003FB7F8948091390290913A02A0913B025D
:100B0000B0913C0226B5A89B05C02F3F19F0019675
:100B1000A11DB11D3FBF6627782F892F9A2F620F25
:100B2000711D811D911D42E0660F771F881F991F5F
:100B30004A95D1F70895CF92DF92EF92FF92CF932B
:100B4000DF936B017C010E947805EB01C114D10495
:100B5000E104F10489F00E94320C0E9478056C1BBC
:100B60007D0B683E734090F381E0C81AD108E1081C
:100B7000F108C851DC4FEACFDF91CF91FF90EF90A1
:100B8000DF90CF900895789484B5826084BD84B559
:100B9000816084BD85B5826085BD85B5816085BD78
:100BA000EEE6F0E0808181608083E1E8F0E0108291
:100BB000808182608083808181608083E0E8F0E0D2
:100BC000808181608083E1E9F0E0808182608083C0
:100BD000808181608083E0E9F0E0808181608083B2
:100BE000E1ECF0E08081846080838081826080839A
:100BF000808181608083E3ECF0E08081816080838C
:100C0000E0ECF0E0808182608083E2ECF0E08081C3
:100C100081608083EAE7F0E0808184608083808166
:100C2000826080838081816080838081806880830E
:100C3000089590E0FC013197EF30F105B0F5EA5AE4
:100C4000FF4F0C94980D809180008F7703C08091A6
:100C500080008F7D80938000089580918000877F41
:100C6000F9CF84B58F7702C084B58F7D84BD089598
:100C7000809190008F7707C0809190008F7D03C096
:100C800080919000877F8093900008958091C000AC
:100C90008F7703C08091C0008F7D8093C00008953E
:100CA0008091C200877F8093C20008950F931F93A5
:100CB000CF93DF931F92CDB7DEB7282F30E0F90135
:100CC000E653FF4F8491F901E851FF4F1491F90168
:100CD000EA5FFE4F04910023C9F0882321F0698365
:100CE0000E9419066981E02FF0E0EE0FFF1FEC5D16
:100CF000FE4FA591B4919FB7F8948C91611103C0F8
:100D00001095812301C0812B8C939FBF0F90DF91A1
:100D1000CF911F910F910895CF93DF931F92CDB77D
:100D2000DEB76983DC01ED91FC910280F381E02D57
:100D300041E050E0BE016F5F7F4F09950F90DF915A
:100D4000CF910895CF93DF93EC018C859D8597FF1C
:100D500005C082E00E945F099D878C878C859D85F8
:100D6000DF91CF91089583E00C94B40BFC0184854E
:100D7000958597FD06C082E00E94070990E00196E4
:100D8000089582E00E94070990E00895FC0184859F
:100D9000958597FD05C02FEF3FEF35872487089590
:100DA00082E00C945F09CF93DF93EC0180910D01F9
:100DB000882331F083E00E9490091816190634F058
:100DC00081E090E09B838A8380E090E0DF91CF9187
:100DD0000895FC0120812E5F208342E450E062E30D
:100DE00071E080E80C942B0AFC0181819081913A9A
:100DF00059F4813209F03CC047E050E066E071E010
:100E000080E00E942B0A43C0913291F5803239F480
:100E100067E070E086E091E00E945C0A06C08232E2
:100E200009F035C0828180930D0180910601909177
:100E30000701A0910801B0910901803B9440A105F0
:100E4000B105C1F480910D0180FD14C087E797E7DB
:100E500090930108809300082BE088E190E00FB6A2
:100E6000F894A895809360000FBE209360000FC097
:100E700080E0089588E10FB6F894809360001092A6
:100E800060000FBEA895109201081092000881E042
:100E900008952FEF3FEFFC013587248708951092C6
:100EA000400210923F0288EE93E0A0E0B0E0809311
:100EB000410290934202A0934302B093440282E421
:100EC00091E090933E0280933D028FEF9FEF9093CD
:100ED0004A0280934902089508950E94C3050E9422
:100EE0006C078DE892E00E94140C0E949201C0E011
:100EF000D0E00E94B5012097E1F30E940000F9CFF5
:100F0000CF92DF92EF92FF920F931F93CF93DF93D5
:100F10006C017A01EB01E60EF71E00E010E0CE1541
:100F2000DF0561F06991D601ED91FC910190F081AE
:100F3000E02DC6010995080F191FF1CFC801DF91F7
:100F4000CF911F910F91FF90EF90DF90CF90089578
:100F50006115710581F0DB010D900020E9F7AD010D
:100F600041505109461B570BDC01ED91FC91028069
:100F7000F381E02D099480E090E008950C94A80797
:100F8000DC01ED91FC910190F081E02D09946EE47B
:100F900071E00C94A8078F929F92AF92BF92CF926C
:100FA000DF92EF92FF920F931F93CF93DF93CDB712
:100FB000DEB7A1970FB6F894DEBF0FBECDBF7C01A0
:100FC000C42EE52FCB01D22E19A221E02D1510F051
:100FD0002AE0D22E8E010F5D1F4F8D2C912CA12C5B
:100FE000B12C6C2D7E2FA50194010E94760D8C2DC5
:100FF000D29E80191124015011098A3014F4805DA9
:1010000001C0895CF8018083211531054105510536
:1010100021F0C22EE32FCA01E4CFB801C7010E941C
:10102000A807A1960FB6F894DEBF0FBECDBFDF9123
:10103000CF911F910F91FF90EF90DF90CF90BF90D5
:10104000AF909F908F900895CF92DF92EF92FF9292
:101050000F931F93CF93DF93EC016A017B0121155E
:10106000310579F4E881F9810190F081E02D642F58
:10107000DF91CF911F910F91FF90EF90DF90CF9074
:1010800009942A303105E9F477FF1AC06DE20E9415
:10109000C0078C0144275527BA014C195D096E0918
:1010A0007F092AE0CE010E94CB07800F911FDF91BC
:1010B000CF911F910F91FF90EF90DF90CF90089507
:1010C0002AE0B701A601CE01DF91CF911F910F91C8
:1010D000FF90EF90DF90CF900C94CB079A01AB017B
:1010E000662757FD6095762F0C9424080F931F9365
:1010F000CF93DF93EC019A01AB01662757FD609512
:10110000762F0E9424088C01CE010E94C707800F11
:10111000911FDF91CF911F910F91089540919102FE
:101120005091920220918F02309190024217530702
:10113000B4F49091E8009570E1F39091E80092FD8D
:1011400019C08093F10080919102909192020196D2
:101150008F739927892B19F48EEF8093E800809183
:101160009102909192020196909392028093910243
:1011700081E0089580E00895CF92DF92FF920F936F
:101180001F93CF93DF931F92CDB7DEB7082F162F93
:10119000862F880F8E5F99830E948E0883E00E94BD
:1011A0008E08F02EC02E9981D92E8C2D8F19811783
:1011B00078F4F60184910E948E08082F80E00E9446
:1011C0008E088023FFEFCF1ADF0A8111EECF01C016
:1011D00081E00F90DF91CF911F910F91FF90DF90F1
:1011E000CF900895615030F02091F100FC012083F0
:1011F0000196F8CF289884E68093940208952FB73B
:10120000FC012083F89467706093E9000895CF9300
:10121000DF931F92CDB7DEB7682FCE0101960E94F3
:10122000FF088091F20099819FBF0F90DF91CF91CD
:101230000895FF920F931F93CF93DF9300D0CDB704
:10124000DEB7F62E8A0190919302992311F057FF91
:1012500003C08FEF9FEF2BC0682FCE0101967A83DA
:101260000E94FF088091F20090E0A8017A81801727
:1012700091070CF4AC01EF2DF72FF40E84E6FE1667
:1012800039F02898809394029091F1009193F7CFD0
:101290004115510521F08091F200882321F08981C8
:1012A0008FBFCA0104C08BE68093E800F8CF0F908F
:1012B0000F90DF91CF911F910F91FF900895CF93E1
:1012C000DF931F92CDB7DEB741E050E0BE016F5F04
:1012D0007F4F0E941909019719F4898190E002C09B
:1012E0008FEF9FEF0F90DF91CF910895CF93DF9312
:1012F0001F92CDB7DEB7682FCE0101960E94FF087E
:101300009091E800892F807295FF04C09091F200BF
:1013100080E4891B99819FBF0F90DF91CF91089541
:101320006F927F928F929F92AF92BF92CF92DF92F5
:10133000EF92FF920F931F93CF93DF931F92CDB73E
:10134000DEB7782E7B01C42EB52E809193028823C0
:1013500069F0042F152F8AEFD82E872D8072982ED2
:101360009AE3A92E872D8074882E11C08FEF9FEFEE
:1013700057C0872D0E947609682E81110CC0DA941F
:10138000A9F361E070E080E090E00E949B05011508
:10139000110579F73BC0282F30E0021713070CF432
:1013A000602E672DCE0101960E94FF088091E80013
:1013B00085FF29C0262D30E0021B130B992039F040
:1013C0006A948FEF6816B1F01092F100F9CFF7012F
:1013D000862D77FE07C0815058F094919093F100CC
:1013E0003196F9CF815020F091919093F100FACF8E
:1013F000E20EF31E8091E80085FF0FC00115110574
:1014000011F481100AC089818FBFC1CF5D9884E635
:10141000809395028C2D9B2D03C0A092E800F3CF02
:101420000F90DF91CF911F910F91FF90EF90DF9080
:10143000CF90BF90AF909F908F907F906F900895C6
:101440001092E900109292021092910290939002F1
:1014500080938F020895CF92DF92FF920F931F9394
:10146000CF93DF9300D0CDB7DEB7F82E8A016B01A2
:1014700001151105B1F0F601F7FE02C0849101C01B
:10148000808149835A830E948E0801501109FFEF21
:10149000CF1ADF0A49815A818111EACF8FEF9FEF7E
:1014A00001C0CA010F900F90DF91CF911F910F9152
:1014B000FF90DF90CF9008951F93CF93DF931F92FB
:1014C000CDB7DEB7162F2091E80022FFFCCF612FA9
:1014D00079830E94F2088BEF8093E800812F798155
:1014E000972F0F90DF91CF911F910895CF93DF93A6
:1014F0001F92CDB7DEB71982CE0101960E94E90690
:10150000CE0101960E94510C898190E00F90DF91ED
:10151000CF9108951F920F920FB60F921124EF9260
:10152000FF920F931F932F933F934F935F936F936C
:101530007F938F939F93AF93BF93EF93FF93CF933B
:10154000DF93CDB7DEB76297DEBFCDBF1092E90063
:101550008091E80083FFEBC068E0CE010A960E940C
:10156000F20882EF8093E8009A8597FF05C080918A
:10157000E80080FFFCCF03C08EEF8093E800892F46
:10158000807609F0B9C08B85811105C01092F100F9
:101590001092F100C5C0282F2D7F213009F4C0C062
:1015A000853049F48091E80080FFFCCF8C8580680D
:1015B0008093E300B5C0863009F076C02D85E888B9
:1015C000F988223071F580E090E02A8B0E94200A91
:1015D0000E94760A99E08E010F5F1F4FF801392FA4
:1015E00011923A95E9F799832A892A8391E09E839B
:1015F00090E898879AEF9987209191023091920212
:10160000275F3F4F3C832B838D83C7010E94200AB5
:1016100049E050E0B80180E00E942B0A0E94760A5F
:101620007FC0C7012A8B0E94200A2A89223241F4F6
:1016300082E290E00E945C0C892B09F071C074C0BA
:10164000213069F488899989089711F420938E02D2
:1016500080918E02811118C06BE871E01AC02330AE
:1016600009F062C08C85882391F0823021F460E11A
:1016700089EA91E006C0813009F056C06BE08DE93F
:1016800091E00E94BC084AC069E771E002C06AEBC1
:1016900071E06115710509F447C0FB01449150E008
:1016A00080E80E942B0A3CC0873009F43DC0883096
:1016B00021F481E08093F10033C0893089F5937083
:1016C00099F5E5E7F1E081E021E096E38093E90018
:1016D0002093EB0034913093EC009093ED008F5FFA
:1016E0003196853099F78EE78093EA001092EA00F0
:1016F0008C858093930214C0888999890E94200A5E
:101700008E85811105C0CE010A960E94F40606C09E
:10171000823051F4CE010A960E94840C882321F075
:101720008EEF8093E80003C081E28093EB00629625
:101730000FB6F894DEBF0FBECDBFDF91CF91FF9102
:10174000EF91BF91AF919F918F917F916F915F9139
:101750004F913F912F911F910F91FF90EF900F901C
:101760000FBE0F901F9018958093E9008091F200B2
:10177000882319F08AE38093E80008951F920F925E
:101780000FB60F9211242F933F934F935F936F9354
:101790007F938F939F93AF93BF93EF93FF9380912A
:1017A000E1001092E10083FF0FC01092E90091E088
:1017B0009093EB001092EC0092E39093ED00109266
:1017C000930298E09093F00082FF1DC083E00E9496
:1017D000B40B80919502882339F080919502815055
:1017E00080939502882369F080919402882359F0B0
:1017F00080919402815080939402811104C0289AB0
:1018000002C05D9AF1CFFF91EF91BF91AF919F918F
:101810008F917F916F915F914F913F912F910F9099
:101820000FBE0F901F9018951092930281E0809345
:10183000D70080EA8093D80082E189BD09B400FE18
:10184000FDCF61E070E080E090E00E949B0580E9C0
:101850008093D8008CE08093E2001092E000559ACB
:10186000209A08950895FF920F931F93CF93DF93CB
:10187000EC01F62EE881F9810480F581E02D0995CF
:101880008C01E881F9810680F781E02D6F2DCE0172
:101890000995C8019927DF91CF911F910F91FF9072
:1018A0000895FC0120812F5F208349E150E06EE321
:1018B00072E080E80C942B0A45E650E067E572E0A0
:1018C00080E80C942B0AEF92FF920F931F93CF9313
:1018D000DF931F92CDB7DEB789838B017A0141E098
:1018E00050E0BE016F5F7F4F84E00E949009A70126
:1018F000B80184E40E9490090F90DF91CF911F916D
:101900000F91FF90EF900895FC0191818081813AC1
:1019100031F481E0913091F0933089F411C081323B
:1019200071F49B3021F4828180930F0105C09A30BD
:1019300031F4828180930E0181E00895089580E062
:10194000089548E050E082E00C94630CCF93DF935D
:10195000DC01683818F0E8E7E60F25C0E62FF0E074
:1019600067FF11C0E058F10981E090E001C0880FE5
:10197000EA95EAF714969C911497982B14969C93E9
:101980001497E0E010C0E254FE4FE491EE2309F416
:1019900040C0E7FF08C014968C911497826014969B
:1019A0008C931497EF7716968C9116978E1741F1BA
:1019B00017968C9117978E1719F118968C91189786
:1019C0008E17F1F019968C9119978E17C9F01A9607
:1019D0008C911A978E17A1F01B968C911B978E17DE
:1019E00079F080E090E0ED01C80FD91F2E81211120
:1019F00002C0EE8305C0019686309105A1F709C0AB
:101A0000BD016C5F7F4FCD010E94A10C81E090E091
:101A100008C081E090E013969C938E93129780E02B
:101A200090E0DF91CF910895683818F0E8E7E60F6D
:101A300025C0E62FF0E067FF12C0E058F10921E071
:101A400030E001C0220FEA95EAF72095DC011496F8
:101A50003C911497322314963C93E0E00FC0E2547B
:101A6000FE4FE491EE2329F1E7FF08C0DC01149654
:101A70002C9114972D7F14962C93EF7720E030E073
:101A8000EE2351F0DC01A20FB31F16964C9116976E
:101A90004E1302C016961C922F5F3F4F2630310521
:101AA00079F7BC016C5F7F4F0E94A10C81E090E050
:101AB000089580E090E00895FC0116821782108658
:101AC0001186128613861482BC016C5F7F4F0C94C2
:101AD000A10C1092A202109299021092980283E631
:101AE00091E090939702809396020895A1E21A2EB6
:101AF000AA1BBB1BFD010DC0AA1FBB1FEE1FFF1FB2
:101B0000A217B307E407F50720F0A21BB30BE40B01
:101B1000F50B661F771F881F991F1A9469F7609548
:101B20007095809590959B01AC01BD01CF01089502
:101B3000EE0FFF1F0590F491E02D0994F894FFCF6C
:101B4000993971FE780200E10000000000000101F7
:101B5000207C20477958203D2000207C204779595F
:101B6000203D2000207C2047795A203D20000000A5
:101B70000000A8027B02500258026B027A020000A9
:101B800000008C06D306B606C606A206B3060D0AEA
:101B9000006E616E00696E66006F7666002E000052
:0E1BA000000000330C8007A60C140D5C0D0035
:00000001FF
